:02000004605842
:100400000000042051C0586055BF58605DBF58605F
:1004100079BF58607BBF58607DBF58600000000006
:100420000000000000000000000000007FBF5860D6
:10043000000000000000000081BF586083BF5860CA
:1004400085BF586085BF586085BF586085BF5860BC
:1004500085BF586085BF586085BF586085BF5860AC
:1004600085BF586085BF586085BF586085BF58609C
:1004700085BF586085BF586085BF586085BF58608C
:1008000085BF5860F8B500BFF8BC08BC9E4670476D
:10081000F8B500BFF8BC08BC9E46704790000000C9
:10082000020000009100000002000000050000002E
:10083000010000001E000000020000000F00000088
:10084000050000001080000004000000010000000E
:100850001D00000001000000040000000400000072
:1008600010800000080000000CCD0120593F5860A6
:100870004552524F523A2054656E736F72466C6FF8
:1008800077204C697465206D6F64656C20696E66B5
:100890006572656E6365206661696C656420776961
:1008A0007468206572726F7220636F64653A2025E8
:1008B000642E0D0A000000006E6574776F726B5F26
:1008C000666C6F61740000004661696C6564207439
:1008D0006F20696E697469616C697A652045746816
:1008E0006F732D553535206465766963650D00009D
:1008F0006E756D5F626173655F61646472203C3D1B
:10090000204E50555F5245475F42415345505F412D
:1009100052524C454E000000433A2F557365727396
:100920002F536368756C7A65457269634A2F6D74DD
:10093000772F6D74625F7368617265642F6D746286
:100940002D64736C2D70736538787867702F7265BD
:100950006C656173652D76312E352E302F70646C89
:100960002F647269766572732F74686972645F7040
:10097000617274792F434F4D504F4E454E545F5521
:1009800035352F7372632F6574686F73755F646597
:10099000766963655F7535355F7536352E630000A2
:1009A0007162617365203C3D20414444524553537C
:1009B0005F4D41534B00000061646472203C3D2058
:1009C000414444524553535F4D41534B0000000096
:1009D000453A204E5055207374617475733D3078DC
:1009E0002530386C782C2071726561643D256C75FA
:1009F0002C20636D645F656E645F7265616368651A
:100A0000643D2575202825733A2564290A000000D5
:100A10002F433A2F55736572732F536368756C7A41
:100A200065457269634A2F6D74772F6D74625F73C9
:100A300068617265642F6D74622D64736C2D7073C0
:100A40006538787867702F72656C656173652D768F
:100A5000312E352E302F70646C2F6472697665727A
:100A6000732F74686972645F70617274792F434F79
:100A70004D504F4E454E545F5535352F7372632F91
:100A80006574686F73755F6465766963655F7535F6
:100A9000355F7536352E6300453A20536F667420F6
:100AA00072657365742074696D6564206F75742058
:100AB0002825733A2564290A00000000453A20469B
:100AC00061696C656420746F207377697463682052
:100AD00073656375726974792073746174652061DC
:100AE0006E642070726976696C656765206C6576E6
:100AF000656C202825733A2564290A00453A20466A
:100B000061696C656420746F20616C6C6F636174E3
:100B100065206D656D6F727920666F72204574680F
:100B20006F732D5520646576696365202825733AB7
:100B30002564290A00000000453A204661696C6579
:100B40006420746F20696E697469616C697A6520CC
:100B50006465766963652E204472697665722068E3
:100B60006173206E6F74206265656E20636F6D70B7
:100B7000696C656420666F72207468697320707296
:100B80006F64756374202825733A2564290A000070
:100B9000453A204E505520636F6E666967206D6937
:100BA000736D617463682E206E70752E70726F6441
:100BB0007563743D25752C206F7074696D697A6555
:100BC000722E70726F647563743D257520282573CD
:100BD0003A2564290A000000453A204E505520630A
:100BE0006F6E666967206D69736D617463682E202E
:100BF0006E70752E6D6163735F7065725F63633DC8
:100C000025752C206F7074696D697A65722E6D611F
:100C100063735F7065725F63633D2575202825737C
:100C20003A2564290A000000453A204E50552063B9
:100C30006F6E666967206D69736D617463682E20DD
:100C40006E70752E636D645F73747265616D5F762F
:100C5000657273696F6E3D25752C206F7074696DB8
:100C6000697A65722E636D645F73747265616D5F1E
:100C700076657273696F6E3D2575202825733A2558
:100C800064290A00453A204E505520636F6E66690C
:100C900067206D69736D617463682E206E70752EA8
:100CA000637573746F6D5F646D613D25752C206F86
:100CB0007074696D697A65722E637573746F6D5F98
:100CC000646D613D2575202825733A2564290A0045
:100CD000453A204E50552061726368206D69736DEE
:100CE000617463682E206E70752E617263683D2595
:100CF000752E25752E25752C206F7074696D697A97
:100D000065722E617263683D25752E25752E2575D9
:100D1000202825733A2564290A0000002F433A2F22
:100D200055736572732F536368756C7A6545726984
:100D3000634A2F6D74772F6D74625F73686172659B
:100D4000642F6D74622D64736C2D707365387878C0
:100D500067702F72656C656173652D76312E352E47
:100D6000302F70646C2F647269766572732F7468AB
:100D70006972645F70617274792F434F4D504F4EAA
:100D8000454E545F5535352F7372632F6574686F08
:100D900073755F6472697665722E6300453A204E02
:100DA0006F204E5055206472697665722068616EBE
:100DB000646C65207265676973746572656420612F
:100DC0007420616464726573732025702E20282559
:100DD000733A2564290A0000453A204661696C652A
:100DE0006420746F2063726561746520676C6F6244
:100DF000616C20647269766572206D757465782007
:100E00002825733A2564290A00000000453A204647
:100E100061696C656420746F20637265617465201C
:100E2000676C6F62616C20647269766572207365AD
:100E30006D6170686F7265202825733A2564290AF0
:100E400000000000453A204661696C656420746FBB
:100E500020696E697469616C697A65204574686F90
:100E6000732D5520646576696365202825733A25BE
:100E700064290A00453A204661696C656420746FF4
:100E8000206372656174652064726976657220738F
:100E9000656D6170686F7265202825733A25642935
:100EA0000A000000453A204661696C656420746F51
:100EB00020736F66742D7265736574204E505520D3
:100EC0002825733A2564290A00000000453A204687
:100ED00061696C656420746F2072657175657374E7
:100EE00020706F77657220666F72204574686F732B
:100EF0002D55202825733A2564290A00453A2043B8
:100F00006F6D6D616E642073747265616D206164D4
:100F10006472202570206E6F7420616C69676E6545
:100F20006420746F2031362062797465732028251F
:100F3000733A2564290A0000453A2042617365200E
:100F4000616464722025643A203078256C6C786E78
:100F50006F7420616C69676E656420746F20313630
:100F6000206279746573202825733A2564290A0064
:100F7000453A204661696C656420746F2072657122
:100F80007565737420706F776572202825733A2514
:100F900064290A00573A204E6F20706F77657220DF
:100FA00072657175657374206C65667420746F204A
:100FB00072656C656173652C207265666572656E1D
:100FC000636520636F756E74657220697320300AE3
:100FD00000000000453A20496E666572656E6365E3
:100FE000206A6F62206E6F742072756E6E696E6714
:100FF0002E2E2E202825733A2564290A0000000091
:10100000453A204E5055206572726F722873292020
:101010006F63637572656420647572696E672069B9
:101020006E666572656E63652E202825733A2564A9
:10103000290A0000453A204E505520696E666572B7
:10104000656E63652074696D6564206F75742E200C
:101050002825733A2564290A00000000453A2055E6
:101060006E6578706563746564206A6F622073745E
:10107000617465202825733A2564290A0000000060
:10108000453A20496E666572656E636520616C72D3
:10109000656164792072756E6E696E672C206F725F
:1010A0002077616974696E6720746F2062652063C0
:1010B0006C65617265642E2E2E202825733A256496
:1010C000290A0000453A20437573746F6D204F70F4
:1010D000657261746F72205061796C6F61643A203F
:1010E000256C75206973206E6F7420636F72726552
:1010F00063742C206578706563746564202578209E
:101100002825733A2564290A00000000453A206327
:101110007573746F6D5F646174615F73697A653D47
:1011200030782578206E6F742061206D756C74693D
:10113000706C65206F662034202825733A25642959
:101140000A000000453A2046617374206D656D6F9A
:101150007279206172656120746F6F20736D616CAC
:101160006C2E20666173745F6D656D6F72795F734D
:10117000697A653D257A752C20626173655F6164CB
:1011800064725F73697A653D257A75202825733A04
:101190002564290A00000000453A20554E53555059
:1011A000504F52544544206472697665725F6163A2
:1011B00074696F6E5F636F6D6D616E643A20257543
:1011C000202825733A2564290A000000453A204664
:1011D00061696C656420746F20696E766F6B652041
:1011E000696E666572656E63652E202825733A25E3
:1011F00064290A00453A204E6F204E5055206472F3
:10120000697665722068616E646C652061766169DB
:101210006C61626C652C206275742073656D617001
:10122000686F72652074616B656E202825733A259E
:1012300064290A00206F75747075743A000000000C
:1012400025362E33662000000D00000069203C206A
:1012500073697A6528290000666C61746275666638
:101260006572733A3A566563746F723C542C20531E
:10127000697A65543E3A3A72657475726E5F747934
:10128000706520666C6174627566666572733A3A61
:10129000566563746F723C542C2053697A65543ED2
:1012A0003A3A4765742853697A65542920636F6E0A
:1012B0007374205B776974682054203D20666C61EC
:1012C00074627566666572733A3A4F6666736574E2
:1012D0003C74666C6974653A3A5375624772617022
:1012E000683E3B2053697A6554203D206C6F6E67E1
:1012F00020756E7369676E656420696E743B207239
:10130000657475726E5F74797065203D20636F6ED1
:1013100073742074666C6974653A3A5375624772E7
:101320006170682A5D0000002E2E2F2E2E2F6D7406
:10133000625F7368617265642F6D6C2D74666C6991
:1013400074652D6D6963726F2F72656C656173656D
:101350002D76332E332E302F434F4D504F4E454E6A
:10136000545F4D4C5F54464C4D2F696E636C7564F1
:10137000652F666C6174627566666572732F696E3F
:10138000636C7564652F666C617462756666657200
:10139000732F766563746F722E68000076656374D0
:1013A0006F723A3A5F4D5F7265616C6C6F635F613B
:1013B0007070656E640000006D61785F64657465CF
:1013C0006374696F6E7300006D61785F636C617345
:1013D0007365735F7065725F646574656374696F6C
:1013E0006E000000646574656374696F6E735F708E
:1013F00065725F636C617373000000007573655FF5
:10140000726567756C61725F6E6D73006E6D735F90
:1014100073636F72655F7468726573686F6C640084
:101420006E6D735F696F755F7468726573686F6CFA
:10143000640000006E756D5F636C617373657300AB
:10144000795F7363616C6500785F7363616C6500DD
:10145000685F7363616C6500775F7363616C6500DF
:101460006574686F732D7500060008000A000D0092
:101470000F001200150018001B001F00230027009A
:101480002B00300035003B00400047004D00550068
:101490005C0065006D00770081008C009800A4005E
:1014A000B200C000CF00E00000000000C4871E387A
:1014B0003B861E392354B23919801E3AF6A0773A7A
:1014C0009B44B23A529AF23A90671E3B1470483BE2
:1014D0001465773B60A2953B8A06B23BEFDDD03BBB
:1014E0005E27F23BC6F00A3C8C051E3C4451323C60
:1014F00025D3473C598A5E3C0076763C96CA873CA9
:1015000073F3943C13B5A23CEF0EB13C7900C03CA0
:101510001C89CF3C3EA8DF3C415DF03CBFD3003D81
:1015200024C3093D79FC123D617F1C3D7E4B263D65
:101530007060303DD2BD3A3D3D63453D4950503D20
:1015400088845B3D8DFF663DE4C0723D1AC87E3DD8
:101550005C8A853D22D38B3D203E923D17CB983D42
:10156000C6799F3DEB49A63D423BAD3D874DB43D1D
:101570007380BB3DC0D3C23D2447CA3D56DAD13D3E
:101580000A8DD93DF55EE13DC94FE93D375FF13D3B
:10159000EF8CF93D51EC003EFD20053E5364093EC1
:1015A0002AB60D3E5416123EA984163EFB001B3E81
:1015B0001E8B1F3EE622243E24C8283EAB7A2D3ED9
:1015C0004B3A323ED706373E1FE03B3EF2C5403E27
:1015D00020B8453E78B64A3EC8C04F3EDFD6543E9E
:1015E0008AF8593E96255F3ED05D643E05A1693E6E
:1015F000FFEE6E3E8B47743E74AA793E84177F3EA1
:101600004347823EA107853EC2CC873E8A968A3EEA
:10161000DD648D3EA037903EB60E933E04EA953EC3
:101620006DC9983ED4AC9B3E1E949E3E2C7FA13E3D
:10163000E36DA43E2660A73ED655AA3ED84EAD3EE9
:101640000C4BB03E564AB33E994CB63EB551B93EEE
:101650008E59BC3E0664BF3EFD70C23E5680C53EFC
:10166000F391C83EB5A5CB3E7EBBCE3E2FD3D13E37
:10167000AAECD43ECF07D83E8024DB3E9F42DE3E1C
:101680000C62E13EA882E43E55A4E73EF2C6EA3E83
:1016900063EAED3E860EF13E3D33F43E6A58F73E76
:1016A000EC7DFA3EA4A3FD3EBA64003F9EF7013FE5
:1016B0006F8A033F1D1D053F97AF063FD041083F8E
:1016C000B7D3093F3C650B3F51F60C3FE5860E3F13
:1016D000E916103F4EA6113F0435133FFCC2143FDC
:1016E0002550163F72DC173FD367193F37F21A3F78
:1016F000917B1C3FD0031E3FE68A1F3FC410213F51
:101700005A95223F9918243F739A253FD81A273FAC
:10171000B999283F09172A3FB7922B3FB60C2D3FA6
:10172000F6842E3F69FB2F3F0170313FAFE2323F1D
:101730006553343F14C2353FAF2E373F2799383FAA
:101740006E013A3F76673B3F32CB3C3F942C3E3FA5
:101750008D8B3F3F11E8403F1242423F8299433F09
:1017600055EE443F7C40463FEC8F473F96DC483F78
:101770006F264A3F696D4B3F77B14C3F8EF24D3F2C
:10178000A0304F3FA26B503F86A3513F42D8523FFB
:10179000C909543F1038553F0A63563FAC8A573F3A
:1017A000EBAE583FBBCF593F11ED5A3FE2065C3FCD
:1017B000241D5D3FCB2F5E3FCC3E5F3F1E4A603F06
:1017C000B651613F8A55623F8F55633FBC51643FBC
:1017D000074A653F673E663FD22E673F3E1B683F24
:1017E000A203693FF7E7693F31C86A3F4AA46B3FEC
:1017F000397C6C3FF44F6D3F741F6E3FB2EA6E3F11
:10180000A4B16F3F4374703F8932713F6CEC713FFC
:10181000E7A1723FF352733F87FF733F9EA7743F68
:10182000324B753F3BEA753FB484763F971A773F5A
:10183000DDAB773F8238783F80C0783FD143793F36
:1018400070C2793F5A3C7A3F88B17A3FF6217B3F9C
:10185000A18D7B3F83F47B3F99567C3FDFB37C3F78
:10186000520C7D3FEE5F7D3FAFAE7D3F93F87D3FF5
:10187000973D7E3FB87D7E3FF4B87E3F48EF7E3F88
:10188000B3207F3F324D7F3FC3747F3F66977F3FDA
:1018900019B57F3FDACD7F3FA9E17F3F85F07F3FDC
:1018A0006DFA7F3F61FF7F3F61FF7F3F6DFA7F3FB2
:1018B00085F07F3FA9E17F3FDACD7F3F19B57F3FBC
:1018C00066977F3FC3747F3F324D7F3FB3207F3F9A
:1018D00048EF7E3FF4B87E3FB87D7E3F973D7E3F28
:1018E00093F87D3FAFAE7D3FEE5F7D3F520C7D3F75
:1018F000DFB37C3F99567C3F83F47B3FA18D7B3FD8
:10190000F6217B3F88B17A3F5A3C7A3F70C2793FDB
:10191000D143793F80C0783F8238783FDDAB773F55
:10192000971A773FB484763F3BEA753F324B753F59
:101930009EA7743F87FF733FF352733FE7A1723F47
:101940006CEC713F8932713F4374703FA4B16F3FBB
:10195000B2EA6E3F741F6E3FF44F6D3F397C6C3FAF
:101960004AA46B3F31C86A3FF7E7693FA203693F6A
:101970003E1B683FD22E673F673E663F074A653F82
:10198000BC51643F8F55633F8A55623FB651613FFA
:101990001E4A603FCC3E5F3FCB2F5E3F241D5D3F24
:1019A000E2065C3F11ED5A3FBBCF593FEBAE583FCB
:1019B000AC8A573F0A63563F1038553FC909543F18
:1019C00042D8523F86A3513FA26B503FA0304F3FB9
:1019D0008EF24D3F77B14C3F696D4B3F6F264A3FCA
:1019E00096DC483FEC8F473F7C40463F55EE443FF6
:1019F0008299433F1242423F11E8403F8D8B3F3F67
:101A0000942C3E3F32CB3C3F76673B3F6E013A3FE2
:101A10002799383FAF2E373F14C2353F6553343FC7
:101A2000AFE2323F0170313F69FB2F3FF6842E3F1A
:101A3000B60C2D3FB7922B3F09172A3FB999283F83
:101A4000D81A273F739A253F9918243F5A95223F69
:101A5000C410213FE68A1F3FD0031E3F917B1C3FED
:101A600037F21A3FD367193F72DC173F2550163FF4
:101A7000FCC2143F0435133F4EA6113FE916103F38
:101A8000E5860E3F51F60C3F3C650B3FB7D3093F4F
:101A9000D041083F97AF063F1D1D053F6F8A033FAA
:101AA0009EF7013FBA64003FA4A3FD3EEC7DFA3EE1
:101AB0006A58F73E3D33F43E860EF13E63EAED3E52
:101AC000F2C6EA3E55A4E73EA882E43E0C62E13E3F
:101AD0009F42DE3E8024DB3ECF07D83EAAECD43EB8
:101AE0002FD3D13E7EBBCE3EB5A5CB3EF391C83EB3
:101AF0005680C53EFD70C23E0664BF3E8E59BC3E58
:101B0000B551B93E994CB63E564AB33E0C4BB03E29
:101B1000D84EAD3ED655AA3E2660A73EE36DA43E04
:101B20002C7FA13E1E949E3ED4AC9B3E6DC9983E38
:101B300004EA953EB60E933EA037903EDD648D3E9E
:101B40008A968A3EC2CC873EA107853E4347823EA5
:101B500084177F3E74AA793E8B47743EFFEE6E3E3B
:101B600005A1693ED05D643E96255F3E8AF8593EE8
:101B7000DFD6543EC8C04F3E78B64A3E20B8453EF8
:101B8000F2C5403E1FE03B3ED706373E4B3A323E61
:101B9000AB7A2D3E24C8283EE622243E1E8B1F3EF3
:101BA000FB001B3EA984163E5416123E2AB60D3E7B
:101BB0005364093EFD20053E51EC003EEF8CF93D9B
:101BC000375FF13DC94FE93DF55EE13D0A8DD93DF5
:101BD00056DAD13D2447CA3DC0D3C23D7380BB3DD8
:101BE000874DB43D423BAD3DEB49A63DC6799F3D97
:101BF00017CB983D203E923D22D38B3D5C8A853D9C
:101C00001AC87E3DE4C0723D8DFF663D88845B3D11
:101C10004950503D3D63453DD2BD3A3D7060303D39
:101C20007E4B263D617F1C3D79FC123D24C3093D5E
:101C3000BFD3003D415DF03C3EA8DF3C1C89CF3C5A
:101C40007900C03CEF0EB13C13B5A23C73F3943C59
:101C500096CA873C0076763C598A5E3C25D3473C41
:101C60004451323C8C051E3CC6F00A3C5E27F23BD8
:101C7000EFDDD03B8A06B23B60A2953B1465773B13
:101C80001470483B90671E3B529AF23A9B44B23A1A
:101C9000F6A0773A19801E3A2354B2393B861E3992
:101CA000C4871E380000000000002A4200001D44C6
:101CB0000000000000000000000000000000000024
:101CC0000000000000000000000000000000000014
:101CD0000A000000090000000500000006000000E6
:101CE0000A0000000D000000010000000B000000D1
:101CF0000D000000010000000700000005000000CA
:101D00000600000000000000020000006574686F1B
:101D100073755F6465765F72756E5F636F6D6D611D
:101D20006E645F73747265616D0000000504011FCD
:101D300000040000020A00040104011F0004000066
:101D4000020A000407000004000000000000000078
:101D50000000000000000000000000000000000083
:101D60000000000000000000000000000000000073
:101D70000000000000000000000000000000000063
:101D80000000000000000000000000000000000053
:101D90000000000000000000000000000000000043
:101DA000000000000100000000D00F24FFFF0F24FE
:101DB00001000000040000000200000000C02F2607
:101DC000FFBF3326010000000400000003000000F4
:101DD00000C03326FFFF4F26010000000400000072
:101DE000110000000B0000000C00000000000000CB
:101DF00000000000000000000000000000000000E3
:101E000000000000000000000000000000000000D2
:101E1000000000008DC5586013C65860DDC55860CD
:101E20002DC5586041C5586000000000000000004A
:101E30008DC5586013C65860DDC5586055C55860DB
:101E400071C5586043495243554C41525F42554613
:101E50004645520054464C6974655F446574656339
:101E600074696F6E5F506F737450726F63657373D4
:101E700000556E6B6E6F776E2074797065004E4FF3
:101E80005459504500464C4F415433320055494E49
:101E9000543800535452494E4700424F4F4C004370
:101EA0004F4D504C4558363400464C4F4154363413
:101EB00000434F4D504C45583132380055494E542F
:101EC0003634005245534F5552434500564152490E
:101ED000414E540055494E5433320055494E543109
:101EE0003600494E54340042464C4F41543136007E
:101EF000494E5432002C2066756E6374696F6E3AD9
:101F00002000617373657274696F6E2022257322DD
:101F1000206661696C65643A2066696C65202225DB
:101F200073222C206C696E65202564257325730A45
:101F300000494E4600696E66004E414E006E616E6D
:101F4000003000303132333435363738394142438E
:101F500044454600303132333435363738396162E2
:101F60006364656600496E66696E697479004E61E6
:101F70004E005245454E54206D616C6C6F6320736A
:101F80007563636565646564002F646174612F6ABD
:101F9000656E6B696E732F776F726B7370616365BB
:101FA0002F474E552D746F6F6C636861696E2F619A
:101FB000726D2D31342D352F7372632F6E65776CF2
:101FC00069622D63796777696E2F6E65776C6962D8
:101FD0002F6C6962632F7374646C69622F64746F11
:101FE000612E630042616C6C6F632073756363657F
:101FF00065646564002F646174612F6A656E6B6946
:102000006E732F776F726B73706163652F474E55D8
:102010002D746F6F6C636861696E2F61726D2D3105
:10202000342D352F7372632F6E65776C69622D6363
:10203000796777696E2F6E65776C69622F6C69625C
:10204000632F7374646C69622F6D707265632E63A5
:1020500000232D302B2000686C4C006566674546D8
:1020600047004300504F534958002E000000000025
:10207000000000002FDA5860C5DA586087DA58602F
:1020800023DB58602BDB586033DB58603BDB586048
:1020900025DA586023DA586023DA58604BDC586040
:1020A000B1DF5860D1DB586043DB5860FDDE58601B
:1020B00025E2586051DB586000000000000000007D
:1020C00019DA586021DA58604FDB58604FDB5860EE
:1020D00000000000000000000000000045E958601A
:1020E00045E9586047E95860C9E958604FE95860C8
:1020F00057E9586073E958607BE9586083E9586094
:102100008BE958609FE958603DE9586041E95860A3
:10211000B9E95860C5E958605B435C60AFE9586055
:10212000B5E95860000000000000000009EA5860AE
:1021300009EA58602FEB586059EE5860EDED586091
:1021400079EE586023EE5860ABED586005EA5860B0
:102150000BEA58608FEB58607FEA5860D7EA586006
:10216000B1EC586000000000000000002FDA586059
:10217000C5DA586087DA586023DB58602BDB58607B
:1021800033DB58603BDB58606BF1586079F0586086
:102190008DF0586097F158600FF2586089F25860DE
:1021A000BDF25860E5F2586025E2586051DB586096
:1021B000000000000000000025F3586045F358605F
:1021C00063F5586071F458607FF4586091F458607A
:1021D000D1F4586059F358605FF45860A9F458601E
:1021E00001F55860ADF45860CDF45860BFF5586003
:1021F00091F35860BDF45860FCFFFFFF0000000041
:102200003DF3586051F35860CBF35860C5F4586003
:1022100000000000000000005DF458605DF45860AC
:1022200063F5586071F458607FF4586091F4586019
:10223000D1F4586027F558605FF45860A9F45860ED
:1022400001F55860ADF45860CDF45860BFF55860A2
:102250009BF55860BDF45860FCFFFFFF00000000D4
:10226000D9F55860DDF55860B7F55860C5F4586089
:10227000000000000000000053F6586053F658605C
:1022800055F6586085F65860B3F85860A5F6586062
:10229000F3F858601FF658601BF65860EFF8586066
:1022A000A1F65860000000000000000051F95860DD
:1022B00051F9586053F958607E1E5860851E586069
:1022C000D51E58608D1E5860BD1E5860931E586004
:1022D0009A1E5860DC1E58609F1E58608E1E586003
:1022E000E81E5860A91E5860B11E5860BC1E586098
:1022F000C31E5860CC1E5860D41E5860DB1E586048
:10230000E21E5860E71E5860F01E58600000000092
:1023100000000000010000000100000001000000BA
:1023200001000000000000000100000000000000AB
:10233000000000000000000000000000000000009D
:10234000000000000200000001000000000000008A
:102350000300000000000000020000000100000077
:10236000000000000000010000000000020000006A
:10237000010000000000000000000000000000005C
:1023800000000000000000000080AB825585FD8742
:10239000A58A498DEB8F89922495B9974A9AD59C45
:1023A0005A9FD8A150A4C0A628A988ABDFAD2EB0F3
:1023B00073B2AFB4E1B609B927BB3BBD44BF43C15B
:1023C00037C320C5FEC6D1C899CA57CC09CEB1CFF4
:1023D0004DD1DFD266D4E3D555D7BDD81ADA6EDB3E
:1023E000B7DCF7DD2DDF59E07CE197E2A8E3B0E44C
:1023F000B0E5A8E698E77FE85FE937EA08EBD2EBBB
:1024000095EC51ED07EEB6EE5FEF01F09FF036F17F
:10241000C8F154F2DCF25EF3DCF355F4CAF43AF599
:10242000A6F50EF672F6D2F62FF788F7DEF730F83B
:102430007FF8CBF815F95BF99FF9E0F91EFA5AFA23
:1024400094FACCFA01FB34FB65FB95FBC2FBEEFB77
:1024500018FC40FC66FC8CFCAFFCD1FCF2FC12FDCD
:1024600030FD4DFD69FD84FD9EFDB6FDCEFDE5FD13
:10247000FBFD0FFE24FE37FE49FE5BFE6CFE7DFE7B
:102480008CFE9BFEAAFEB8FEC5FED2FEDEFEEAFE74
:10249000F5FE00FF0BFF15FF1EFF27FF30FF39FF82
:1024A00041FF48FF50FF57FF5EFF65FF6BFF71FF65
:1024B00077FF7CFF82FF87FF8CFF91FF95FF99FFDD
:1024C0009EFFA2FFA5FFA9FFADFFB0FFB3FFB6FFC0
:1024D000B9FFBCFFBFFFC2FFC4FFC7FFC9FFCBFFEF
:1024E000CDFFD0FFD1FFD3FFD5FFD7FFD9FFDAFF54
:1024F000DCFFDDFFDFFFE0FFE1FFE3FFE4FFE5FFDF
:10250000E6FFE7FFE8FFE9FFEAFFEBFFECFFEDFF87
:10251000EDFFEEFFEFFFF0FFF0FFF1FFF2FFF2FF44
:10252000F3FFF3FFF4FFF4FFF5FFF5FFF6FFF6FF0F
:10253000F6FFF7FFF7FFF8FFF8FFF8FFF9FFF9FFE5
:10254000F9FFF9FFFAFFFAFFFAFFFAFFFBFFFBFFC3
:10255000FBFFFBFFFBFFFCFFFCFFFCFFFCFFFCFFA6
:10256000FCFFFDFFFDFFFDFFFDFFFDFFFDFFFDFF8C
:10257000FDFFFEFFFEFFFEFFFEFFFEFFFEFFFEFF74
:10258000FEFFFEFFFEFFFFFF000000000000000056
:102590000100000001000000010000000100000037
:1025A000000000000100000000000000000000002A
:1025B000000000000000000001000000000000001A
:1025C0000000000004000000030000000200000002
:1025D00001000000000000000080AB825585FD87EF
:1025E000A58A498DEB8F89922495B9974A9AD59CF3
:1025F0005A9FD8A150A4C0A628A988ABDFAD2EB0A1
:1026000073B2AFB4E1B609B927BB3BBD44BF43C108
:1026100037C320C5FEC6D1C899CA57CC09CEB1CFA1
:102620004DD1DFD266D4E3D555D7BDD81ADA6EDBEB
:10263000B7DCF7DD2DDF59E07CE197E2A8E3B0E4F9
:10264000B0E5A8E698E77FE85FE937EA08EBD2EB68
:1026500095EC51ED07EEB6EE5FEF01F09FF036F12D
:10266000C8F154F2DCF25EF3DCF355F4CAF43AF547
:10267000A6F50EF672F6D2F62FF788F7DEF730F8E9
:102680007FF8CBF815F95BF99FF9E0F91EFA5AFAD1
:1026900094FACCFA01FB34FB65FB95FBC2FBEEFB25
:1026A00018FC40FC66FC8CFCAFFCD1FCF2FC12FD7B
:1026B00030FD4DFD69FD84FD9EFDB6FDCEFDE5FDC1
:1026C000FBFD0FFE24FE37FE49FE5BFE6CFE7DFE29
:1026D0008CFE9BFEAAFEB8FEC5FED2FEDEFEEAFE22
:1026E000F5FE00FF0BFF15FF1EFF27FF30FF39FF30
:1026F00041FF48FF50FF57FF5EFF65FF6BFF71FF13
:1027000077FF7CFF82FF87FF8CFF91FF95FF99FF8A
:102710009EFFA2FFA5FFA9FFADFFB0FFB3FFB6FF6D
:10272000B9FFBCFFBFFFC2FFC4FFC7FFC9FFCBFF9C
:10273000CDFFD0FFD1FFD3FFD5FFD7FFD9FFDAFF01
:10274000DCFFDDFFDFFFE0FFE1FFE3FFE4FFE5FF8C
:10275000E6FFE7FFE8FFE9FFEAFFEBFFECFFEDFF35
:10276000EDFFEEFFEFFFF0FFF0FFF1FFF2FFF2FFF2
:10277000F3FFF3FFF4FFF4FFF5FFF5FFF6FFF6FFBD
:10278000F6FFF7FFF7FFF8FFF8FFF8FFF9FFF9FF93
:10279000F9FFF9FFFAFFFAFFFAFFFAFFFBFFFBFF71
:1027A000FBFFFBFFFBFFFCFFFCFFFCFFFCFFFCFF54
:1027B000FCFFFDFFFDFFFDFFFDFFFDFFFDFFFDFF3A
:1027C000FDFFFEFFFEFFFEFFFEFFFEFFFEFFFEFF22
:1027D000FEFFFEFFFEFFFFFF030000000100000000
:1027E0000200000000000000004F66666C696E6524
:1027F0004D656D6F7279416C6C6F636174696F6E5A
:102800000004040108000102080102081008000089
:1028100004020000000000000080AB825585FD87A7
:10282000A58A498DEB8F89922495B9974A9AD59CB0
:102830005A9FD8A150A4C0A628A988ABDFAD2EB05E
:1028400073B2AFB4E1B609B927BB3BBD44BF43C1C6
:1028500037C320C5FEC6D1C899CA57CC09CEB1CF5F
:102860004DD1DFD266D4E3D555D7BDD81ADA6EDBA9
:10287000B7DCF7DD2DDF59E07CE197E2A8E3B0E4B7
:10288000B0E5A8E698E77FE85FE937EA08EBD2EB26
:1028900095EC51ED07EEB6EE5FEF01F09FF036F1EB
:1028A000C8F154F2DCF25EF3DCF355F4CAF43AF505
:1028B000A6F50EF672F6D2F62FF788F7DEF730F8A7
:1028C0007FF8CBF815F95BF99FF9E0F91EFA5AFA8F
:1028D00094FACCFA01FB34FB65FB95FBC2FBEEFBE3
:1028E00018FC40FC66FC8CFCAFFCD1FCF2FC12FD39
:1028F00030FD4DFD69FD84FD9EFDB6FDCEFDE5FD7F
:10290000FBFD0FFE24FE37FE49FE5BFE6CFE7DFEE6
:102910008CFE9BFEAAFEB8FEC5FED2FEDEFEEAFEDF
:10292000F5FE00FF0BFF15FF1EFF27FF30FF39FFED
:1029300041FF48FF50FF57FF5EFF65FF6BFF71FFD0
:1029400077FF7CFF82FF87FF8CFF91FF95FF99FF48
:102950009EFFA2FFA5FFA9FFADFFB0FFB3FFB6FF2B
:10296000B9FFBCFFBFFFC2FFC4FFC7FFC9FFCBFF5A
:10297000CDFFD0FFD1FFD3FFD5FFD7FFD9FFDAFFBF
:10298000DCFFDDFFDFFFE0FFE1FFE3FFE4FFE5FF4A
:10299000E6FFE7FFE8FFE9FFEAFFEBFFECFFEDFFF3
:1029A000EDFFEEFFEFFFF0FFF0FFF1FFF2FFF2FFB0
:1029B000F3FFF3FFF4FFF4FFF5FFF5FFF6FFF6FF7B
:1029C000F6FFF7FFF7FFF8FFF8FFF8FFF9FFF9FF51
:1029D000F9FFF9FFFAFFFAFFFAFFFAFFFBFFFBFF2F
:1029E000FBFFFBFFFBFFFCFFFCFFFCFFFCFFFCFF12
:1029F000FCFFFDFFFDFFFDFFFDFFFDFFFDFFFDFFF8
:102A0000FDFFFEFFFEFFFEFFFEFFFEFFFEFFFEFFDF
:102A1000FEFFFEFFFEFFFFFF6042A20D0000004030
:102A20000000803F00000000FE822B6547156740D4
:102A300000000000000038430000FAFE422E76BF7E
:102A40003A3B9EBC9AF70CBDBDFDFFFFFFFFDF3F89
:102A50003C5455555555C53F912B17CF5555A53F5E
:102A600017D0A4671111813F000000000000C84288
:102A7000EF39FAFE422EE63F24C482FFBDBFCE3FAF
:102A8000B5F40CD7086BAC3FCC5046D2ABB2833F09
:102A9000843A4E9BE0D7553F000000000000000044
:102AA000000000000000F03F6EBF881A4F3B9B3CC7
:102AB0003533FBA93DF6EF3F5DDCD89C136071BC5C
:102AC0006180773E9AECEF3FD16687107A5E90BCCA
:102AD000857F6EE815E3EF3F13F6673552D28C3CE5
:102AE000748515D3B0D9EF3FFA8EF92380CE8BBC15
:102AF000DEF6DD296BD0EF3F61C8E6614EF7603C42
:102B0000C89B751845C7EF3F99D3335BE4A3903C4E
:102B100083F3C6CA3EBEEF3F6D7B835DA69A973CAA
:102B20000F89F96C58B5EF3FFCEFFD921AB58E3C5A
:102B3000F747722B92ACEF3FD19C2F703DBE3E3CCD
:102B4000A2D1D332ECA3EF3F0B6E908934036ABC61
:102B50001BD3FEAF669BEF3F0EBD2F2A525695BC8E
:102B6000515B12D00193EF3F55EA4E8CEF8050BC81
:102B7000CC316CC0BD8AEF3F16F4D5B923C991BCE6
:102B8000E02DA9AE9A82EF3FAF555CE9E3D3803CDC
:102B9000518EA5C8987AEF3F4893A5EA151B80BCD3
:102BA0007B517D3CB872EF3F3D32DE55F01F8FBC4C
:102BB000EA8D8C38F96AEF3FBF53133F8C898B3C09
:102BC00075CB6FEB5B63EF3F26EB11769CD996BC20
:102BD000D45C0484E05BEF3F602F3A3EF7EC9A3C14
:102BE000AAB968318754EF3F9D3886CB82E78FBC06
:102BF0001DD9FC22504DEF3F8DC3A644416F8A3C46
:102C0000D68C62883B46EF3F7D04E4B0057A803C79
:102C100096DC7D91493FEF3F94A8A8E3FD8E963C5A
:102C20003862756E7A38EF3F7D4874F2185E873CE3
:102C30003FA6B24FCE31EF3FF2E71F982B47803CC3
:102C4000DD7CE265452BEF3F5E08713F7BB896BCAB
:102C50008163F5E1DF24EF3F31AB096DE1F7823CA1
:102C6000E1DE1FF59D1EEF3FFABF6F1A9B213DBCB1
:102C700090D9DAD07F18EF3FB40A0C7282378B3CC0
:102C80000B03E4A68512EF3F8FCBCE8992146E3CE6
:102C9000562F3EA9AF0CEF3FB6ABB04D754D833C00
:102CA00015B7310AFE06EF3F4C74ACE20142863C98
:102CB00031D84CFC7001EF3F4AF8D35D39DD8F3CD1
:102CC000FF1664B208FCEE3F045B8E3B80A386BC1B
:102CD000F19F925FC5F6EE3F68504BCCED4A92BC37
:102CE000CBA93A37A7F1EE3F8E2D511BF80799BCBF
:102CF00066D8056DAEECEE3FD236943EE8D171BC9D
:102D0000F79FE534DBE7EE3F151BCEB3191999BCED
:102D1000E5A813C32DE3EE3F6D4C2AA7489F853CE1
:102D20002234124CA6DEEE3F8A69287A601293BCE8
:102D30001C80AC0445DAEE3F5B8917488FA758BC6E
:102D40002A2EF7210AD6EE3F1B9A49679B2C7CBCA2
:102D500097A850D9F5D1EE3F11ACC260ED63433C6A
:102D60002D89616008CEEE3FEF64063B0966963C14
:102D700057001DED41CAEE3F7903A1DAE1CC6E3C6C
:102D8000D03CC1B5A2C6EE3F30120F3F8EFF933C40
:102D9000DED3D7F02AC3EE3FB0AF7ABBCE90763CFD
:102DA000272A36D5DABFEE3F77E054EBBD1D933CC2
:102DB0000DDDFD99B2BCEE3F8EA3710034948FBC43
:102DC000A72C9D76B2B9EE3F49A393DCCCDE87BC3D
:102DD0004266CFA2DAB6EE3F5F380FBDC6DE78BCE2
:102DE000824F9D562BB4EE3FF65C7BEC461286BCC0
:102DF0000F925DCAA4B1EE3F8ED7FD180535933C06
:102E0000DA27B53647AFEE3F059B8A2FB7987B3C54
:102E1000FDC797D412ADEE3F09541CE2E163903C2C
:102E2000295448DD07ABEE3FEAC6195085C7343C4C
:102E3000B746598A26A9EE3F35C0642BE632943C4A
:102E40004821AD156FA7EE3F9F7699614AE48CBC8F
:102E500009DC76B9E1A5EE3FA84DEF3BC5338CBC4C
:102E600085553AB07EA4EE3FAEE92B89785384BCF9
:102E700020C3CC3446A3EE3F58585678DDCE93BCE1
:102E80002522558238A2EE3F64197E80AA10573C55
:102E900073A94CD455A1EE3F28225EBFEFB393BC7B
:102EA000CD3B7F669EA0EE3F82B93487AD126ABCEF
:102EB000BFDA0B7512A0EE3FEEA96DB8EF6763BCE9
:102EC0002F1A653CB29FEE3F5188E0543DDC80BC38
:102ED000849451F97D9FEE3FCF3E5A7E641F78BCAB
:102EE000745FECE8759FEE3FB07D8BC04AEE86BC08
:102EF0007481A5489A9FEE3F8AE6551E321986BC1A
:102F0000C9674256EB9FEE3FD3D4095ECB9C903C01
:102F10003F5DDE4F69A0EE3F1DA54DB9DC327BBCA5
:102F20008701EB7314A1EE3F6BC06754FDEC943C3A
:102F300032C13001EDA1EE3F556CD6ABE1EB653C03
:102F4000624ECF36F3A2EE3F42CFB32FC5A188BC6D
:102F5000121A3E5427A4EE3F34373BF1B66993BCB6
:102F600013CE4C9989A5EE3F1EFF193A845E80BCB2
:102F7000ADC723461AA7EE3F6E5772D850D494BC03
:102F8000ED92449BD9A8EE3F008A0E5B67AD903C62
:102F900099668AD9C7AAEE3FB4EAF0C12FB78D3C33
:102FA000DBA02A42E5ACEE3FFFE7C59C60B665BCFE
:102FB0008C44B51632AFEE3F445FF35983F67B3C49
:102FC00036771599AEB1EE3F833D1EA71F0993BC1E
:102FD000C6FF910B5BB4EE3F291E6C8BB8A95DBC9C
:102FE000E5C5CDB037B7EE3F59B9907CF9236CBC3D
:102FF0000F52C8CB44BAEE3FAAF9F422434392BC25
:10300000504EDE9F82BDEE3F4B8E66D76CCA85BCAC
:10301000BA07CA70F1C0EE3F27CE912BFCAF713CCE
:1030200090F0A38291C4EE3FBB730AE135D26D3CB0
:103030002323E31963C8EE3F6322622204C587BCE1
:1030400065E55D7B66CCEE3FD531E2E3861C8B3CCB
:10305000332D4AEC9BD0EE3F15BBBCD3D1BB91BC0A
:103060005D253EB203D5EE3FD231EE9C31CC903C93
:1030700058B330139ED9EE3FB35A736E8469843CC3
:10308000BFFD79556BDEEE3FB49D8E97CDDF82BCE0
:103090007AF3D3BF6BE3EE3F8733CB92771A8C3C46
:1030A000ADD35A999FE8EE3FFAD9D14A8F7B90BCB5
:1030B00066B68D2907EEEE3FBAAEDC56D9C355BCD5
:1030C000FB154FB8A2F3EE3F40F6A63D0EA490BC10
:1030D0003A59E58D72F9EE3F3493AD38F4D668BCB9
:1030E000475EFBF276FFEE3F358A586BE2EE91BC0D
:1030F0004A06A130B005EF3FCDDD5F0AD7FF743C33
:10310000D2C14B901E0CEF3FAC9892FAFBBD91BC24
:10311000091ED75BC212EF3FB30CAF30AE6E733CEB
:103120009C5285DD9B19EF3F94FD9F5C32E38E3C02
:103130007AD0FF5FAB20EF3FAC5909D18FE0843CE0
:103140004BD1572EF127EF3F671A4E38AFCD633C76
:10315000B5E706946D2FEF3F6819926C2C6B673CB6
:103160006990EFDC2037EF3FD2B5CC83188A80BC62
:10317000FAC35D550B3FEF3F6FFAFF3F5DAD8FBC6C
:103180007C89074A2D47EF3F49A97538AE0D90BCA1
:10319000F2890D08874FEF3FA7073DA685A3743C32
:1031A00087A4FBDC1858EF3F0F2240209E9182BC81
:1031B0009883C916E360EF3FAC92C1D5505A8E3C5C
:1031C0008532DB03E669EF3F4B6B01AC593A843C37
:1031D00060B401F32173EF3F1F3EB40721D582BCD9
:1031E0005F9B7B33977CEF3FC90D473BB92A89BC76
:1031F00029A1F5144686EF3FD3883A6004B6743CA3
:10320000F63F8BE72E90EF3F71729D51ECC5833CEA
:10321000834CC7FB519AEF3FF091D38F12F78FBCCD
:10322000DA90A4A2AFA4EF3F7D7423E298AE8DBCE8
:10323000F1678E2D48AFEF3F0820AA41BCC38E3CFA
:10324000275A61EE1BBAEF3F32EBA9C3942B843CA3
:1032500097BA6B372BC5EF3FEE85D131A9648A3C15
:1032600040456E5B76D0EF3FEDE33BE4BA378EBC72
:1032700014BE9CADFDDBEF3F9DCD914D3B89773C6E
:10328000D8909E81C1E7EF3F89CC6041C105533C96
:10329000F1718F2BC2F3EF3F000000000000F03F00
:1032A000748515D3B0D9EF3F0F89F96C58B5EF3F4E
:1032B000515B12D00193EF3F7B517D3CB872EF3FE1
:1032C000AAB968318754EF3F3862756E7A38EF3F9C
:1032D000E1DE1FF59D1EEF3F15B7310AFE06EF3FF9
:1032E000CBA93A37A7F1EE3F2234124CA6DEEE3FCF
:1032F0002D89616008CEEE3F272A36D5DABFEE3F32
:10330000824F9D562BB4EE3F295448DD07ABEE3F6C
:1033100085553AB07EA4EE3FCD3B7F669EA0EE3F42
:10332000745FECE8759FEE3F8701EB7314A1EE3FED
:1033300013CE4C9989A5EE3FDBA02A42E5ACEE3FC7
:10334000E5C5CDB037B7EE3F90F0A38291C4EE3F14
:103350005D253EB203D5EE3FADD35A999FE8EE3FCF
:10336000475EFBF276FFEE3F9C5285DD9B19EF3FF7
:103370006990EFDC2037EF3F87A4FBDC1858EF3F64
:103380005F9B7B33977CEF3FDA90A4A2AFA4EF3F23
:1033900040456E5B76D0EF3F000000000000E84241
:1033A0009423914BF86AAC3FF3C4FA50CEBFCE3FA2
:1033B000D6520CFF422EE63F0000000000003843CA
:1033C000FE822B65471547409423914BF86ABC3E1B
:1033D000F3C4FA50CEBF2E3FD6520CFF422E963F7A
:1033E000BEF3F879EC61F63FDEAA8C80F77BD5BF9F
:1033F0003D88AF4AED71F53FDB6DC0A7F0BED2BF8F
:10340000B010F0F03995F43F673A517FAE1ED0BF4F
:103410008503B8B095C9F33FE92482A6D831CBBF64
:10342000A564880C190DF33F5877C00A4F57C6BFE3
:10343000A08E0B7B225EF23F00819CC72BAAC1BFEE
:103440003F341A4A4ABBF13F5E0E8CCE764EBABF6D
:10345000BAE58AF05823F13FCC1C615A3C97B1BFC2
:10346000A70099413F95F03F1E0CE138F452A2BFEE
:10347000000000000000F03F00000000000000001D
:10348000AC479AFD8C60EE3F8459F25DAAA5AA3F35
:10349000A06A021FB3A4EC3FB42E36AA535EBC3F11
:1034A000E6FC6A573620EB3F08DB2077E526C53F70
:1034B0002DAAA163D1C2E93F7047220D86C2CB3F3E
:1034C000ED417803E686E83FE17EA0C88B05D13F59
:1034D000624853F5DC67E73F09EEB6573004D43F46
:1034E000EF39FAFE422EE63F3483B848A30ED0BF30
:1034F0006A0BE00B5B57D53F23410AF2FEFFDFBFAB
:10350000A2000000F9A2000083F9A2006E83F9A2D4
:103510004E6E83F9444E6E8315444E6E2915444E0B
:10352000FC29154427FC29155727FC29D15727FCCE
:10353000F5D1572734F5D157DD34F5D1C0DD34F559
:10354000DBC0DD3462DBC0DD9562DBC0999562DBF8
:103550003C999562433C999590433C994190433CFA
:10356000000000000000F03F000000000000F0BF7D
:10357000000000000000F0BF000000000000F03F6D
:1035800083C8C96D305F6441182D4454FB21F93F55
:10359000000000000000F03F1C620CFDFFFFDFBFD9
:1035A000198F06E15355A53F9D359AE887C056BF50
:1035B000C3F87B024393F93E03A695595455C5BF02
:1035C000C40B23057610813F24CF7437EB9429BFB9
:1035D000000000000000F03F000000000000F0BF0D
:1035E000000000000000F0BF000000000000F03FFD
:1035F00083C8C96D305F6441182D4454FB21F93FE5
:10360000000000000000F0BF1C620CFDFFFFDF3F68
:10361000198F06E15355A5BF9D359AE887C0563FDF
:10362000C3F87B024393F9BE03A695595455C5BF11
:10363000C40B23057610813F24CF7437EB9429BF48
:10364000FB21F93FFB2109407CD91240FB211940A5
:103650007A6A1F407CD92240BBFD2540FB212940CE
:103660003A462C407A6A2F405C4731407CD9324040
:103670009C6B3440BBFD3540DB8F3740FB2139402C
:103680001BB43A403A463C405AD83D407A6A3F40E3
:103690004C7E40405C4741406C1042407CD94240E7
:1036A0008CA243409C6B4440AC344540BBFD45403C
:1036B000CBC64640DB8F4740EB584840FB21494092
:1036C00083F9A200444E6E00FC291500D157270053
:1036D000DD34F50062DBC0003C9995004190430069
:1036E0006351FE00BBDEAB00B761C5003A6E24003B
:1036F000D24D42004906E00009EA2E001C92D1009A
:10370000EB1DFE0029B11C00E83EA700F535820044
:1037100044BB2E009CE98400B4267000417E5F000B
:10372000D6913900538339009CF439008B5F8400B3
:1037300028F9BD00F81F3B00DEFF97000F98050039
:10374000112FEF000A5A8B006D1F6D00CF7E3600DF
:1037500009CB2700464FB7009E663F002DEA5F0069
:10376000BA277500E5EBC7003D7BF100F73907008C
:1037700092528A00FB6BEA001FB15F00085D8D006A
:10378000300356007BFC4600F0AB6B0020BCCF0042
:1037900036F49A00E3A91D005E619100081BE60063
:1037A00085996500A0145F008D40680080D8FF00F7
:1037B00027734D0006063100CA561500C9A87300CC
:1037C0007BE260006B8CC000000000000000008005
:1037D00000000040FB21F93F000000002D44743E32
:1037E000000000809846F83C0000006051CC783B17
:1037F00000000080831BF0390000004020257A384B
:10380000000000802282E336000000001DF36935CD
:103810000200000003000000040000000600000099
:103820000020202020202020202028282828282090
:103830002020202020202020202020202020202088
:1038400020881010101010101010101010101010F0
:1038500010040404040404040404041010101010E0
:1038600010104141414141410101010101010101AA
:1038700001010101010101010101010110101010FC
:10388000101042424242424202020202020202027C
:1038900002020202020202020202020210101010D0
:1038A00020000000000000000000000000000000F8
:1038B0000000000000000000000000000000000008
:1038C00000000000000000000000000000000000F8
:1038D00000000000000000000000000000000000E8
:1038E00000000000000000000000000000000000D8
:1038F00000000000000000000000000000000000C8
:1039000000000000000000000000000000000000B7
:1039100000000000000000000000000000000000A7
:103920000000000005000000190000007D000000FC
:103930000080E03779C34143176E05B5B5B89346AB
:10394000F5F93FE9034F384D321D30F94877825A77
:103950003CBF737FDD4F1575000000000000F03F95
:10396000000000000000244000000000000059405A
:103970000000000000408F40000000000088C340AD
:1039800000000000006AF8400000000080842E4122
:1039900000000000D01263410000000084D797416E
:1039A0000000000065CDCD41000000205FA0024274
:1039B000000000E876483742000000A2941A6D42E9
:1039C000000040E59C30A2420000901EC4BCD642DC
:1039D00000003426F56B0C430080E03779C3414387
:1039E00000A0D8855734764300C84E676DC1AB43FD
:1039F000003D9160E458E143408CB5781DAF15441B
:103A000050EFE2D6E41A4B4492D54D06CFF08044F5
:103A1000F64AE1C7022DB544B49DD9794378EA440A
:103A20000348044B834202D0034B03B1184770474D
:103A30002CAC01202CAC012000000000064B0749F3
:103A4000C91A891048BF0131491003D0044B0BB18A
:103A500001481847704700BF2CAC01202CAC012056
:103A60000000000010B5064C237843B9FFF7D8FFDB
:103A7000044B13B10448AFF300800123237010BD41
:103A8000D0AC0120000000004003000008B5054B49
:103A90001BB105490548AFF30080BDE80840FFF7BA
:103AA000CDBF00BF00000000D4AC012040030000E7
:103AB000A3F5803A704700BF174B002B08BF134B8C
:103AC0009D46FFF7F5FF00218B460F461348144A29
:103AD000121A4EF090FA0E4B002B00D098470D4B67
:103AE000002B00D098470020002104000D000D4855
:103AF000002802D00C48AFF300804EF04DFB2000B0
:103B0000290000F079FA4DF019F900BF0000080013
:103B10000000000051C1586000000420D0AC01201A
:103B2000187102200000000000000000002807DBE0
:103B300000F01F02400901239340024A42F820305E
:103B4000704700BF00E100E010B4214BD3F8CC4334
:103B500014F0010F1FD01F4A13889BB201339BB290
:103B6000138000230BE01A4AD2F888031A4A1288FD
:103B700003EB42121949096821F8120001331F2B87
:103B8000F1D9134B0122C3F8C023D3F8C033124A32
:103B9000138801331380104B1B881F2B0BD90F4A3E
:103BA00011680F4B1868106019600E4B01221A70D3
:103BB000094B00221A8014F48B7F06D0044B40F28C
:103BC0001712C3F8C023D3F8C0335DF8044B704715
:103BD00000804044F2AC0120ECAC012004BD012087
:103BE00000BD0120F5AC012010B4214BD3F8CC422C
:103BF00014F0010F1FD01F4A13889BB201339BB2F0
:103C0000138000230BE01A4AD2F888021A4A12885D
:103C100003EB42121949096821F8120001331F2BE6
:103C2000F1D9134B0122C3F8C022D3F8C032124A93
:103C3000138801331380104B1B881F2B0BD90F4A9D
:103C400011680F4B1868106019600E4B01221A7032
:103C5000094B00221A8014F48B7F06D0044B40F2EB
:103C60001712C3F8C022D3F8C0325DF8044B704776
:103C700000804044F0AC0120EEAC0120FCAC0120FF
:103C8000F8AC0120F4AC012070B5454E4FF400644F
:103C90002246002130464EF0AEF9424D2246002128
:103CA00028464EF0A8F9404B1E60404B1D60404E28
:103CB0002246002130464EF09EF93E4D224600211C
:103CC00028464EF098F93C4B1E603C4B1D603C4929
:103CD0003C4805F095FD044608B1204670BD394DBD
:103CE00005F50044D4F8003343F00043C4F8003332
:103CF0003549402000F04AF903223449284605F0AE
:103D000007FD0D220321284605F0B6FE40F21713E9
:103D1000C4F8C033D4F8C023C4F8C8332C492D48A4
:103D200006F066FA04460028D7D12B4B4FF4003238
:103D3000C3F890219120FFF7F9FE05F50044D4F86F
:103D4000003243F00043C4F80032022223492846DF
:103D500005F0DEFC0D220221284605F08DFE40F222
:103D60001713C4F8C032D4F8C022C4F8C8321C49B2
:103D70001C4806F03DFA04460028AED1164B4FF41D
:103D80008032C3F890219020FFF7D0FE0023164A1E
:103D90001370164A13700822AA600422AA609CE7D6
:103DA00008C5012008BD012004BD012000BD01207F
:103DB00000B5012000AD0120FCAC0120F8AC0120D1
:103DC000441D58600000404437414F442C1D58604A
:103DD000493B58602408586000E100E0381D5860F5
:103DE000E93B58601C085860F5AC0120F4AC012098
:103DF00030B58DB04D4B1B78002B00F08F804C4BB5
:103E00001B78002B00F08F800025484B1D70484B1D
:103E10001D702C463FE0FFEE007AB4EEE77AF1EE3B
:103E200010FA51D5BFEE007A4EE0FFEE006AF4EED4
:103E3000E67AF1EE10FA5BD5FFEE007A58E0013039
:103E400009280DDC0CAB03EB800353ED0A7AF4EE8A
:103E5000C77AF1EE10FAF2DD01B2B0EE677AEEE762
:103E6000B5EEC07AF1EE10FA14DBDFED327A27EE10
:103E7000277AFCEEC77A17EE903AB3F57A7F01D92C
:103E80004FF47A7389B241EA0341412000F07EF891
:103E900000E001BE0134B4F5806F41D26300264AD0
:103EA000126832F9142007EE102AB8EEC77ADFED57
:103EB000237A27EE277AF7EE007AB4EEE77AF1EE6E
:103EC00010FAA8DDB7EE007A1D4A1268D35E07EE3D
:103ED000903AF8EEE77ADFED196A67EEA67AF7EE28
:103EE000006AF4EEE67AF1EE10FA9EDDF7EE007A63
:103EF0008DED007ACDED017A684604F081FC05462F
:103F000000B101BE02A804F0E1FC10F1020FC0D024
:103F10000028BFD19FED0B7A002191E74FF0FF35CC
:103F200028460DB030BD4FF0FF35F9E7F5AC012064
:103F3000F4AC012000007A44F8AC01200000003805
:103F400000BD012000007AC410B1024B01221A709A
:103F5000704700BF08CD012008B5022005F0E6F942
:103F600008BD000008B5064805F046F8054805F00C
:103F7000A9F805220449022005F058F908BD00BF40
:103F80002CCD01202C085860493F586010B5104BCB
:103F900003221A7048F210025A80187199600024A6
:103FA000B4F57A7F0ED20023094A0221012005F0E0
:103FB000E1F848B1074A904208D164204FF098FDDB
:103FC0000134EDE7002000E0012010BD0020FCE7F7
:103FD00000F00F2407028A0008B504F049FDFFF73E
:103FE00053FE08BD08B5FFF7BDFFFFF7F5FF00B1B1
:103FF000FEE7FFF7FDFEFCE708B508F047FA00B161
:1040000001BE62B6FFF7EEFF82688A4216DB10B48B
:10401000C3680B44C3604468A34201DB1B1BC3603D
:10402000C46803699C4205D0521A826000205DF882
:10403000044B70470023C3600361F5E74FF0FF3086
:104040007047C368194443688B4200DCC91A62B1E7
:1040500010B4846801EB040C634500DA5C1A146048
:10406000006808445DF8044B7047006808447047D6
:104070002DE9F04304460E4694469E46DDF81C901A
:10408000089D03FB02F800271CE00CFB030204EB75
:104090008201D1ED007A06EB830191ED007A05EB08
:1040A000820267EE877AC2ED007A01337345ECDB5A
:1040B0000130604501DA0023F8E704EB880405EBE2
:1040C000880501374F4501DA0020F2E7BDE8F083AB
:1040D00030B5054600238B601023CB60022010E032
:1040E00051F822309B0002EB000E41F82E3002EB1B
:1040F0000C0E234441F82E3001326245F0DBAD1046
:104100006046202D04DD4FEA400C04010246F4E72E
:1041100030BD2DE9F04783104FF0010E02E04FEA69
:104120004E0E9B10082BFADC4FEA60044FEA8E0C0F
:1041300000F0B1820026EFE206EB0E0351F82330C7
:1041400003EB45084FEA480305EB0E0051F8200049
:1041500000EB4600470002EBC80898ED007A03F137
:10416000010A02EB8A0ADAED007A02EBC00090ED58
:10417000006A07F1010902EB8909D9ED006A88EDAF
:10418000006ACAED006A80ED007AC9ED007A6344E6
:1041900007EBCE0002EB830A9AED007A03F10109E6
:1041A00002EB8909D9ED007A02EB800797ED006AEE
:1041B00000F1010802EB8808D8ED006A8AED006A78
:1041C000C9ED006A87ED007AC8ED007A6344A0EB80
:1041D0000C0002EB830A9AED007A03F1010802EB6E
:1041E0008808D8ED007A02EB800999ED006A471C37
:1041F00002EB8707D7ED006A8AED006AC8ED006A16
:1042000089ED007AC7ED007A634400EBCE0002EB43
:10421000830A9AED007A03F1010802EB8808D8EDD1
:10422000007A02EB800999ED006A471C02EB8707D0
:10423000D7ED006A8AED006AC8ED006A89ED007A60
:10424000C7ED007A2344871C02EB830A9AED007ABB
:1042500003F1010802EB8808D8ED007A02EB870928
:1042600099ED006A033002EB8000D0ED006A8AED20
:10427000006AC8ED006A89ED007AC0ED007AA3EB10
:104280000C00A7EBCE0702EB800A9AED007A00F152
:10429000010902EB8909D9ED007A02EB870393ED5E
:1042A000006A07F1010802EB8808D8ED006A8AED80
:1042B000006AC9ED006A83ED007AC8ED007AA0EBD0
:1042C0000C00674402EB800A9AED007A00F10109C4
:1042D00002EB8909D9ED007A02EB870393ED006ABE
:1042E00007F1010802EB8808D8ED006A8AED006A40
:1042F000C9ED006A83ED007AC8ED007AA0EB0C00EE
:10430000A7EBCE0702EB800A9AED007A00F10108D4
:1043100002EB8808D8ED007A02EB870999ED006A74
:104320007B1C02EB8303D3ED006A8AED006AC8EDC3
:10433000006A89ED007AC3ED007A831C274402EB02
:10434000830999ED007A033002EB8000D0ED007A0A
:1043500002EB870A9AED006A07F1010802EB880870
:10436000D8ED006A89ED006AC0ED006A8AED007A36
:10437000C8ED007A634407EBCE0702EB830A9AED9F
:10438000007A03F1010802EB8808D8ED007A02EB0D
:10439000870999ED006A781C02EB8000D0ED006A75
:1043A0008AED006AC8ED006A89ED007AC0ED007AF6
:1043B0006344A7EB0C0702EB830A9AED007A03F142
:1043C000010802EB8808D8ED007A02EB870999ED25
:1043D000006A781C02EB8000D0ED006A8AED006A6A
:1043E000C8ED006A89ED007AC0ED007A634407EBFE
:1043F000CE0702EB830A9AED007A03F1010802EB83
:104400008808D8ED007A02EB870999ED006A781CDC
:1044100002EB8000D0ED006A8AED006AC8ED006A08
:1044200089ED007AC0ED007A1B1BB81E02EB830AEF
:104430009AED007A03F1010802EB8808D8ED007AC2
:1044400002EB800999ED006A013F02EB8707D7ED87
:10445000006A8AED006AC8ED006A89ED007AC7ED4E
:10446000007AA3EB0C03A0EBCE0002EB830A9AEDDB
:10447000007A03F1010802EB8808D8ED007A02EB1C
:10448000800999ED006A471C02EB8707D7ED006AA7
:104490008AED006AC8ED006A89ED007AC7ED007AFE
:1044A000A3EB0C03604402EB830A9AED007A03F15C
:1044B000010802EB8808D8ED007A02EB800999ED3B
:1044C000006A471C02EB8707D7ED006A8AED006A95
:1044D000C8ED006A89ED007AC7ED007AA3EB0C0302
:1044E000A0EBCE0002EB8307D7F800A0013302EB6C
:1044F0008303D3F8009002EB800898ED007A013036
:1045000002EB8000D0ED007A87ED007AC3ED007AEF
:10451000C8F800A0C0F800900135B542FFF60CAE17
:1045200006EB0E0351F8235005EB46056D00A81C61
:10453000631902EB8009D9ED007A033502EB85059A
:10454000D5F800A002EB8308D8ED006A5F1C02EBEF
:10455000870797ED007AC9ED006A85ED007AC8ED0E
:10456000007AC7F800A0604403EBCE0302EB800999
:10457000D9ED007A471C02EB8707D7F800A002EBC1
:104580008308D8ED006A5D1C02EB850595ED007A85
:10459000C9ED006A87ED007AC8ED007AC5F800A081
:1045A0006044A3EB0C0302EB8009D9ED007A471CB1
:1045B00002EB8707D7F800A002EB8308D8ED006A6A
:1045C0005D1C02EB850595ED007AC9ED006A87ED6B
:1045D000007AC8ED007AC5F800A0871E1D1B02EB0B
:1045E0008708D8ED007A013802EB8000D0F800A0EF
:1045F00002EB8509D9ED006A013502EB850595EDE1
:10460000007AC8ED006A80ED007AC9ED007AC5F83D
:1046100000A0A01C38449D1C02EB8009D9ED007A53
:10462000471C02EB8707D7F800A002EB8508D8EDFE
:10463000006A033302EB830393ED007AC9ED006A4D
:1046400087ED007AC8ED007AC3F800A0A4EB0C0354
:10465000C01A0CF1FF3305EB430502EB8008D8F8D4
:1046600000A0013002EB8003D3F8009002EB850735
:10467000D7ED007A681C02EB80000568C8ED007A6F
:104680001D60C7F800A0C0F800900136764580F2A2
:104690004081002541E70026F8E706EB0E0351F8BC
:1046A000235005EB8605A81C631902EB8009D9EDA0
:1046B000007A033502EB8505D5F800A002EB8308EC
:1046C000D8ED006A5F1C02EB870797ED007AC9ED11
:1046D000006A85ED007AC8ED007AC7F800A0604452
:1046E000634402EB8007D7F80090013002EB8000B2
:1046F000D0F8008002EB8305D5ED007A013302EBA0
:104700008303D3F800A0C7ED007AC0F800A0C5F875
:104710000090C3F800800136764580F2FA800025CB
:10472000B542BADA06EB0E0351F8230000EB850020
:1047300005EB0E0351F8233003EB860302EB800AEE
:104740009AED007A00F1010802EB8808D8ED007AB2
:1047500002EB830999ED006A5F1C02EB8707D7ED36
:10476000006A8AED006AC8ED006A89ED007AC7ED3B
:10477000007A6044634402EB800A9AED007A00F10B
:10478000010802EB8808D8ED007A02EB830999ED65
:10479000006A5F1C02EB8707D7ED006A8AED006AAA
:1047A000C8ED006A89ED007AC7ED007A20449F1CAD
:1047B00002EB800A9AED007A00F1010802EB88080A
:1047C000D8ED007A02EB870999ED006A033302EB1A
:1047D0008303D3ED006A8AED006AC8ED006A89EDB3
:1047E000007AC3ED007AA0EB0C00A7EB0C0702EBFC
:1047F000800A9AED007A00F1010802EB8808D8EDF2
:10480000007A02EB870999ED006A7B1C02EB8303B7
:10481000D3ED006A8AED006AC8ED006A89ED007A7E
:10482000C3ED007A831C274402EB830999ED007ADB
:10483000033002EB8000D0ED007A02EB870A9AED9C
:10484000006A07F1010802EB8808D8ED006A89EDDB
:10485000006AC0ED006A8AED007AC8ED007A634410
:10486000674402EB830A9AED007A03F1010802EB38
:104870008808D8ED007A02EB870999ED006A781C68
:1048800002EB8000D0ED006A8AED006AC8ED006A94
:1048900089ED007AC0ED007A1B1BB81E02EB830A7B
:1048A0009AED007A03F1010802EB8808D8ED007A4E
:1048B00002EB800999ED006A013F02EB8707D7ED13
:1048C000006A8AED006AC8ED006A89ED007AC7EDDA
:1048D000007AA3EB0C03A0EB0C0002EB8307D7F8E4
:1048E00000A0013302EB8303D3F8009002EB8008B1
:1048F00098ED007A013002EB8000D0ED007A87ED70
:10490000007AC3ED007AC8F800A0C0F80090013525
:1049100006E7BDE8F08700B52DED028BD0ED024A29
:1049200090ED035AD0ED041A90ED052AD0ED067AE9
:10493000D0F81CE090ED090AD0ED0A5A90ED0B6A10
:10494000826BC36BD0ED142A90ED153AD0F858C0A5
:10495000C16DD0ED180A90ED191AD0ED1A6A90EDDC
:104960001B7AD0ED1C3A90ED1D4A90ED108A80ED37
:10497000028A90ED118A80ED038A90ED088A80ED1D
:10498000048A80ED050AC0ED060A80ED071AC0ED25
:10499000081A80ED092AC0ED0A2A80ED0B3AC0ED15
:1049A0000E3A80ED0F4AC0ED104A80ED115AC0ED6D
:1049B000145A80ED156AC0ED166A80ED177AC0EDC5
:1049C000187AC0F864E0C0F868C0C166026743673F
:1049D000BDEC028B5DF804FB00B5D0F808C0C168DF
:1049E0008269C369D0ED086A90ED097AD0ED0C7A3E
:1049F000D0F834E0C0ED026A80ED037AC0ED067AAB
:104A0000C0F81CE0C0F820C04162026343635DF857
:104A100004FB00002DE9F04F2DED0E8B8BB0894685
:104A200017460992C11008914E0001968A0002EBC8
:104A3000410399ED007A09EB011494ED006A37EE19
:104A4000065AD9ED017A013209EB8202D2ED006AF1
:104A500077EEA65A37EE467A77EEE67A09EBC1058D
:104A6000D5ED006A09EB830090ED003A36EE834AFB
:104A7000711C09EB810191ED006A013309EB83039D
:104A8000D3ED003A76EE234A76EEC36A36EE636AD9
:104A900075EE043AC9ED003A75EEA43AC9ED013A53
:104AA00035EE445A85ED005A75EEE45AC1ED005AD0
:104AB00077EE465AC4ED005A77EEA65AC2ED005A78
:104AC00037EE067A80ED007A77EEE67AC3ED007A6B
:104AD000D7ED013AD7ED021A97ED032ADFED057AFB
:104AE000F7EE005AB0EE677AB0EE655A00234FF049
:104AF000020A17E2000000001A1D0999079201EB53
:104B0000820292ED004A34EE055A25EE215A5A1DD2
:104B100001EB820292ED00EA3EEE077A27EE217A5F
:104B20009A1D01EB820292ED003A73EE255A65EE72
:104B3000825A073301EB8303D3ED002A72EEA77A82
:104B400067EE827A01980AEB00020AEB40014318F3
:104B500009EB8A0B9BED001A09EB81040294D4ED5A
:104B6000004A71EE24AA0AF1010C09EB8C0C9CEDB1
:104B7000006A481C09EB80050395D5ED006A36EE06
:104B800026AA31EE641A36EE666A0AF1020709EBCC
:104B90008707D7ED004A881C09EB8006049696ED3E
:104BA000008A74EE889A0AF1030609EB8606D6EDB0
:104BB000006A033109EB8101059191ED000A76EE5F
:104BC000800A74EEC84A76EEC06A09EB8208D8ED16
:104BD000008A09EB830E9EED008A78EE88CA551C88
:104BE00009EB850595ED009A581C09EB800090EDC6
:104BF000000A39EE00CA78EEC88A39EE409A941C51
:104C000009EB840494ED000A991C09EB8101D1EDB4
:104C100000DA70EE2DBA033209EB820292ED008ABF
:104C2000033309EB830393ED00DA38EE0DBA30EE6F
:104C30006D0A38EE4D8A3AEEACDA8BED00DA3AEED8
:104C40000CDA8CED00DA39EEABDA87ED00DA30EE13
:104C50008BDA86ED00DA7AEEECAAC8ED00AA3AEE1D
:104C60004CAA85ED00AA79EEEB9AC4ED009A70EE9D
:104C7000CB0AC2ED000A71EE499A76EE280A25EEBB
:104C800029AA67EE20AA3AEE6AAA029C84ED00AA3D
:104C900065EE200A67EE299A70EEA90A039DC5ED1C
:104CA000000A74EEC89A76EE800A24EE29AA6EEE07
:104CB00020AA3AEE6AAA049E86ED00AA64EE200AB3
:104CC0006EEE299A70EEA90A059CC4ED000A31EE39
:104CD000091A36EE686A65EE810A67EE868A70EE1A
:104CE000A80ACEED000A25EE866A27EE811A36EE76
:104CF000416A80ED006A34EE886A76EEC06A63EE3F
:104D0000064A22EEA61A74EE814AC1ED004A63EE0D
:104D1000266A22EE866A76EEC66AC3ED006A019ABA
:104D2000A2EB0A01CAEB4203D01803EB420209EBE3
:104D3000810BDBED004A09EB8004029494ED006ADC
:104D400074EE86AA4F1C09EB870797ED001A441CE6
:104D500009EB84050395D5ED006A31EE26AA74EEC1
:104D6000C64A31EE661A01F18044023C09EB840622
:104D7000049696ED006A00F18044023C09EB84053C
:104D8000059595ED000A76EE009A6FF0404C61446F
:104D900009EB8101D1ED006A604409EB80000690C7
:104DA000D0ED000A36EEA09A36EE406A76EEE06A62
:104DB00009EB830898ED008A09EB820E9EED000A4C
:104DC00078EE00CA5E1C09EB8606D6ED008A551CFB
:104DD00009EB8505D5ED000A38EEA0CA38EE408A09
:104DE00078EEE08A03F18044023C09EB8404D4EDC0
:104DF000000A02F18040023809EB8000D0ED00DAB1
:104E000070EEADBA634409EB830393ED000A62448C
:104E100009EB820292ED00DA30EE0DBA70EEED0A87
:104E200030EE4D0A3AEEACDA8BED00DA3AEE0CDAFF
:104E300087ED00DA39EEABDA049F87ED00DA39EE60
:104E40000BDA81ED00DA7AEEECAAC8ED00AA3AEEB0
:104E50004CAA86ED00AA79EEEB9AC4ED009A39EEE1
:104E60004B9A83ED009A74EEE89A31EE08AA27EE89
:104E7000299A65EE0AAA39EE6A9A029C84ED009A94
:104E800027EE0A7A25EE295A37EE057A039981ED45
:104E9000007A36EE405A36EEA07A2EEE059A64EE8F
:104EA000079A39EE699A059981ED009A2EEE077AF4
:104EB00024EE055A37EE057A069981ED007A34EE34
:104EC000A87A31EE485A67EE874A25EE851A74EEC5
:104ED000814ACEED004A67EE857A65EE875A77EE15
:104EE000E57AC5ED007A36EE007A76EEE07A62EE8B
:104EF000876A23EE276A76EE866AC0ED006A62EE64
:104F0000A77A23EE077A77EEC77AC2ED007A0AF124
:104F1000040AF0EE627AF0EE435AB0EE4E7AB0EE4A
:104F2000445A079B089A023A52453FF7E5AD35EEE1
:104F3000235A25EE215A37EE237A27EE217A75EE91
:104F4000E35A65EE825A77EEE37A67EE827A089A40
:104F50000199501802EB4103CC18114602F1804729
:104F6000023F09EB870797ED006A03F18045023D98
:104F700009EB850595ED003A76EE032A6FF0404285
:104F800001EB020809EB8808D8ED006A03EB020C7C
:104F900009EB8C0C9CED004A76EE844A36EE436AAF
:104FA00076EEC46A00F18046023E09EB860696ED75
:104FB000004A04F18041023909EB8101D1ED000A78
:104FC00074EE201A00EB020E09EB8E0E9EED003AF5
:104FD000224409EB820292ED001A33EE012A34EEEC
:104FE000604A33EE413A32EEA11A87ED001A34EEF0
:104FF000821A88ED001A72EEE12AC6ED002A74EEDC
:10500000C24ACEED004A76EE432A76EE844A25EE79
:10501000222A67EE241A32EE612A85ED002A65EE17
:10502000244A67EE222A74EEA24ACCED004A36EEFC
:10503000036A76EEC46A65EE864A27EEA64A74EEE7
:10504000844AC1ED004A65EEA66A27EE866A76EECE
:10505000C66AC2ED006A089A09EB820898ED006AF8
:1050600009EB830C9CED003A76EE032A561C09EB03
:105070008606D6ED006A591C09EB810191ED004AC4
:1050800076EE844A36EE436A76EEC46A09EB800E09
:105090009EED004A09EB8407D7ED000A74EE201A52
:1050A000451C09EB850595ED003A621C09EB82026F
:1050B00092ED001A33EE012A34EE604A33EE413AA3
:1050C00032EEA11A88ED001A34EE821A86ED001A2B
:1050D00072EEE12ACEED002A74EEC24AC5ED004A16
:1050E00076EE434A36EE842A74EEC22A62EEA32A92
:1050F000CCED002A74EE824A64EEA34AC1ED004A68
:1051000036EE036A76EEC46A76EE264A63EEE44A29
:10511000C7ED004A76EEC66A63EEE63AC2ED003AA3
:10512000089A961C09EB8606D6ED006A9D1C09EBD1
:10513000850595ED004A36EE843A033209EB82028A
:1051400092ED006A033309EB8301D1ED004A76EE5C
:10515000243A76EEC46A36EE646A00F1020C09EB7A
:105160008C0CDCED004AA71C09EB870797ED001AB1
:1051700034EE812A033009EB800090ED004A0334BD
:1051800009EB8403D3ED001A74EE212A74EEC14AB0
:1051900034EE614A73EE021AC6ED001A73EEA21ADB
:1051A000C2ED001A33EE423A8CED003A73EEE23A69
:1051B000C0ED003A36EEC43A76EE242A67EE033AA2
:1051C00025EE222A73EEC23AC5ED003A27EE227A86
:1051D00025EE035A37EE057A81ED007A36EE847AB1
:1051E00076EE646A27EE876A25EEA65A36EE056AE1
:1051F00087ED006A67EEA67A65EE875A77EEE57A64
:10520000C3ED007A0BB0BDEC0E8BBDE8F08F00BF94
:105210002DE9F04FC6104FEA460EB00000EB4603F2
:1052200091ED007A01EB061797ED006A37EE065A0A
:10523000D1ED017A013001EB8000D0ED006A77EE0C
:10524000A65A37EE467A77EEE67A01EBC60CDCED2D
:10525000006A01EB830595ED003A36EE834A0EF1C4
:10526000010401EB840494ED006A013301EB830334
:10527000D3ED003A76EE234A76EEC36A36EE636AE1
:1052800075EE043AC1ED003A75EEA43AC1ED013A6B
:1052900035EE445A8CED005A75EEE45AC4ED005ACE
:1052A00077EE465AC7ED005A77EEA65AC0ED005A7F
:1052B00037EE067A85ED007A77EEE67AC3ED007A6E
:1052C000D2ED013A00234FF0020CFDE01F1D02EB6E
:1052D000870090ED005A581D02EB800090ED006AA7
:1052E000981D02EB8000D0ED005A073302EB8303D8
:1052F000D3ED006A0CEB0E040CEB4E030EEB030037
:1053000001EB8C0B9BED007A01EB830999ED003AE0
:1053100077EE032A0CF1010501EB8505D5ED007A46
:10532000013301EB830393ED004A77EE844A37EEB5
:10533000437A77EEC47A01EB840A9AED004A01EBD6
:105340008008D8ED000A74EE201A013401EB8404C1
:1053500094ED003A013001EB800090ED001A33EE3D
:10536000012A34EE604A33EE413A32EEA11A8BED57
:10537000001A34EE821A85ED001A72EEE12ACAEDA7
:10538000002A74EEC24AC4ED004A77EE432A77EE53
:10539000844A25EE222A66EE241A32EE612A89ED2D
:1053A000002A65EE244A66EE222A74EEA24AC3ED74
:1053B000004A37EE037A77EEC47A65EE874A26EE26
:1053C000A74A74EE844AC8ED004A65EEA77A26EE35
:1053D000877A77EEC77AC0ED007AAEEB0C05CCEB9E
:1053E0004E030EEB030403EB4E0001EB850BDBEDEC
:1053F000007A01EB840999ED004A77EE842A0135A1
:1054000001EB850595ED007A013401EB8404D4EDC0
:10541000004A37EE243A77EEC47A37EE647A01EB2D
:10542000830ADAED004A01EB8008D8ED000A74EE39
:10543000A01A013301EB830393ED004A013001EB25
:10544000800090ED001A34EE012A74EEE04A34EE4A
:10545000414A32EEA11A8BED001A33EE021A85EDA5
:10546000001A72EEE12ACAED002A33EE423A83EDC9
:10547000003A77EEC42A37EE242A26EE223A65EE69
:10548000021A33EE613A89ED003A26EE026A25EE01
:10549000225A36EE056A84ED006A77EE847A37EE9A
:1054A000647A26EEA76A25EE875A36EE056A88EDFD
:1054B000006A66EE876A65EEA75A76EEE56AC0ED89
:1054C000006A0CF1020C3B46B445FFF6FFAE06EB5A
:1054D0000E0206EB4E039E4401EB860494ED007A27
:1054E00001EB8300D0ED005A37EE255A013601EB6F
:1054F0008606D6ED007A013301EB830393ED006A53
:1055000077EE866A37EE657A77EEC67A01EB820728
:1055100097ED006A01EB8E05D5ED002A36EE224AA2
:10552000013201EB8202D2ED005A0EF1010E01EBC5
:105530008E0191ED003A75EE834A36EE626A75EEA1
:10554000C35A35EE043A84ED003A36EEA43A86EDBD
:10555000003A35EE445A87ED005A76EEE46AC2ED21
:10556000006A77EE656A77EE864A36EEE45A25EEF3
:10557000235A80ED005A76EEA46A66EEA36AC3ED64
:10558000006A37EE257A77EEC67A77EE276A63EE01
:10559000E66AC5ED006A77EEC77A63EEE73AC1EDD9
:1055A000003ABDE8F08F2DE9F04F2DED028B85B06C
:1055B000C3101C4601934FEA430E92ED015A9D0021
:1055C00005EB4300D1ED006A05F1010C01EB8C0CF9
:1055D0009CED006A36EEC64A91ED017A01EB0318A4
:1055E000D8ED007A77EE274A76EE866A37EE677A4C
:1055F000DB0001EBC409D9ED007A471C01EB8707FA
:10560000D7ED002A37EEE26A0EF10106B40001EB95
:105610008606D6ED005A01EB8000D0ED003A35EE5B
:10562000A33A77EEA27A75EEE35A76EE433A63EE4A
:10563000853A36EE036A26EE056A34EE233A81EDAA
:10564000003A34EE863A81ED013A34EE634A89ED50
:10565000004A74EEC64AC6ED004A37EEE56A26EE09
:10566000056A77EEA57A67EE857A76EEE75AC8ED99
:10567000005A77EE065ACCED005A76EEA76AC0EDD6
:10568000006A37EE467A87ED007A00260220029300
:10569000039444E106F1040802EB880393ED002A29
:1056A000731D02EB8303D3ED006AB31D02EB83038A
:1056B00093ED003A073602EB8606D6ED004AA5F1D7
:1056C000040902EB890393ED007AEB1E02EB8303DE
:1056D000D3ED001AAB1E02EB8303D3ED007A013D3C
:1056E00002EB8505D5ED002A00EB0E0300EB4E041E
:1056F0000EEB040501EB800B9BED008A671C01EBB0
:10570000870797ED004A78EE440A00F1010C01EB9F
:105710008C0C9CED006A01EB840494ED005A76EE4B
:10572000055A38EE048A36EE456A01EB830A9AED93
:10573000004A6E1C01EB8606D6ED008A34EE680A3C
:10574000013301EB830393ED005A01EB850595EDE1
:10575000001A75EE013A34EE284A35EE415A22EE2F
:10576000201A66EEA58A31EE681A62EE255A66EEB8
:10577000A00A75EEA05A61EE800A67EE238A70EEE9
:10578000E80A61EEA33A27EE000A73EE803A31EEA2
:10579000200A8BED000A35EEA30A8CED000A31EEEB
:1057A000601A8AED001A75EEE35AC3ED005A63EEF3
:1057B000083A64EE865A73EEA53A23EE066A64EE62
:1057C000885A36EE656A22EE841A67EE855A31EE03
:1057D000251A62EE855A27EE844A75EEC45A33EED6
:1057E000815A84ED005A36EE255A87ED005A73EE41
:1057F000C13AC5ED003A36EE656A86ED006AAEEB59
:105800000004C0EB4E030EEB030603EB4E0501EB69
:10581000840BDBED003A06F1010C01EB8C0C9CEDE6
:10582000005A73EEC55A013401EB840494ED001A5A
:1058300001EB860696ED006A31EE068A73EE853A34
:1058400031EE461A01EB830A9AED005A6F1C01EB08
:105850008707D7ED008A75EE680A013301EB8303F1
:1058600093ED004A01EB850595ED006A34EE060ADA
:1058700035EE285A34EE464A27EE256A61EE888ACC
:1058800036EE686A27EE087A61EEA51A37EE217ABD
:1058900066EEA05A62EE001A75EEE15A66EE806A74
:1058A00022EE202A76EE826A36EE252A8BED002A39
:1058B00037EE262A84ED002A36EE656A8AED006A04
:1058C00037EE667A83ED007A67EEA36A22EE817A7C
:1058D00076EE876A67EE817A62EEA32A77EEE27A45
:1058E00024EE856A23EE047A36EE076A24EE847A83
:1058F00023EE053A37EE437A76EE865AC6ED005A25
:1059000077EE875ACCED005A76EEC66AC5ED006A8E
:1059100077EEC77AC7ED007A02304D464646019BC6
:105920009842FFF6B7AE029B039C1344D3ED007A76
:10593000224492ED007A019B03EB0E0203EB4E0032
:10594000864401EB8306D6ED005A451C01EB850524
:1059500095ED004A75EEC44A013301EB8303D3EDA4
:10596000006A01EB800090ED005A36EE856A35EE54
:10597000842A76EEC56A01EB8207D7ED002A0EF184
:10598000010401EB840494ED003A32EEC34A013283
:1059900001EB8202D2ED003A01EB8E0191ED005A4B
:1059A00073EE855A72EE832A73EEC53A27EEA45A37
:1059B00027EE063A35EE435A27EE866A67EE244A0A
:1059C00036EE246A67EE044A27EEA53A74EEC34A1F
:1059D00067EE255A27EE844A75EE845A35EE244A3E
:1059E00086ED004A36EE254A83ED004A35EE645ACC
:1059F00087ED005A36EE656A82ED006A27EE026A8C
:105A000067EEA65A36EE656A67EE266A67EE825A38
:105A100076EEA56A67EEA25A27EE235A75EEC55AAE
:105A200067EEA37A27EE227A77EE877A36EE657AEA
:105A300080ED007A36EEE77A85ED007A36EE256A5B
:105A400081ED006A76EEA76AC4ED006A05B0BDEC90
:105A5000028BBDE8F08F2DE9F84304460E461F4641
:105A6000DDF82080DDF8249012F0030F1AD012F038
:105A700001050BD0091AA8EB600209EB820203EBC7
:105A80008101FFF7C5FB2846BDE8F883091AA8EB9A
:105A9000000209EB820203EB8101FFF784FDF2E7CC
:105AA000A400921012F0030FFAD012F001050BD1EE
:105AB00018E0311BA8EB640209EB820207EB8101BD
:105AC0002046FFF7A5FBA410802CF2DCDBE7311B9E
:105AD000A8EB040209EB820207EB81012046FFF7E5
:105AE00062FDA410802CF2DCCDE72DED108B88B088
:105AF000D1ED011AD1ED027AD1ED033AD0ED000AD1
:105B000090ED106A30EE862AD0ED016A90ED117AA0
:105B100076EE874A70EEC60A76EEC76A90ED087A8E
:105B200090ED183A37EE035A90ED096A90ED194A54
:105B300076EE045A37EE437A36EE446A32EE054A80
:105B40008DED014A34EEA53A8DED023A32EE452A4A
:105B500074EEE54A30EEC6FA76EE87EA70EE860A13
:105B600076EEC76AD0ED025A90ED124A35EE847A8D
:105B700090ED036A90ED135A36EE051A75EEC45A8D
:105B800036EE456A90ED0A5A90ED1A8A75EE082AAB
:105B900090ED0B3A90ED1B0A33EE004A35EE485A71
:105BA00033EE403A37EE220A8DED030A71EE04FA25
:105BB00037EE627A31EE441A75EEC32A36EE054AA4
:105BC00027EEA2CA23EE840A3CEE40CA27EE844A9E
:105BD00063EEA22A34EE224A75EE835A36EE456A07
:105BE00063EEA5CA27EE865A7CEEC5CA23EE866A06
:105BF00067EEA55A36EE256A90ED040A90ED143A48
:105C000070EE038AD0ED055A90ED155A75EE859A1F
:105C100030EE430A75EEC55AD0ED0C2A90ED1CAA61
:105C200032EE8A3A90ED0D8A90ED1D9A38EE095ABF
:105C300072EECA2A38EE498A38EE839A8DED049ABC
:105C400039EE85AA8DED05AA78EEC38ACDED068AD8
:105C500079EEC59A30EE485A75EEA28A35EE683A6A
:105C600023EE213A35EE285A25EE215A30EE080A65
:105C700075EEE25A70EE252A62EEA12A75EEC05A40
:105C800065EEA15ACDED075AD0ED06BAD0ED168AD1
:105C90003BEEA8AA90ED078A90ED170A78EE00AACD
:105CA0007BEEE8BA38EE408A90ED0EBAD0ED1EDAFF
:105CB0003BEE2D9A90ED0F0A90ED1FDA70EE0D8AF3
:105CC0003BEE6DBA30EE4D0A3AEE09EA7AEEA8DA0A
:105CD0003AEE49AA7AEEE8AA3BEEC09A38EE0BDA21
:105CE00063EE898AF0EE685A67EE8D8A75EEE88A6F
:105CF00023EE8DDA27EE899A3DEE099A3BEE800A73
:105D000038EE4B8A27EE80BA63EE88BA3BEE6BBA68
:105D100067EE887A63EE803A77EEA37A30EEE20A95
:105D2000DDED075A76EEE53A70EEA22A76EEA56A28
:105D30007CEECB0A76EE675A3CEE8BBA76EE277A8B
:105D400030EE206A80ED186A33EEA56A80ED196A9C
:105D500030EE600A80ED1A0A73EEE53AC0ED1B3AA8
:105D600032EEE76A80ED1C6A36EE8B6A80ED1D6AC2
:105D700072EEA72AC0ED1E2A76EECB6AC0ED1F6A2E
:105D80007FEE036A7EEE857A3FEE433A3EEEC55AD9
:105D90007CEE285A34EE096A7CEE688A34EE494A71
:105DA00076EEA53AC0ED103A77EE863AC0ED113A9C
:105DB00076EEE56AC0ED126A77EEC67AC0ED137A28
:105DC00073EE447AC0ED147A75EE287AC0ED157A38
:105DD00033EE043A80ED163A35EE685A80ED175AE4
:105DE00077EE6A7A71EE0A6A37EEE65A25EE215AA4
:105DF00077EEA67A67EEA17A37EE2A7A31EE4A1A62
:105E000077EE416A66EEA16A37EE017A27EE217AD3
:105E100072EE695ADDED063A34EEA36A32EE292AB3
:105E200074EEE34A35EE254A80ED084A37EE864A9D
:105E300080ED094A75EEC55AC0ED0A5A36EE676A1A
:105E400080ED0B6A72EE477AC0ED0C7A76EEA47A9A
:105E5000C0ED0D7A37EE027A80ED0E7A74EEE64AE6
:105E6000C0ED0F4ADDED017A9DED047A37EE875AD9
:105E7000DDED026A9DED056A76EE865A37EEC77A49
:105E800076EEC67ADDED036A36EE8E4A7FEEAD4AD7
:105E900076EECE6A3FEEED6A75EE043AC0ED003A5A
:105EA00075EEA43AC0ED013A35EE445A80ED025A3F
:105EB00075EEE45AC0ED035A77EE465AC0ED045A27
:105EC00077EEA65AC0ED055A37EE067A80ED067ACF
:105ED00077EEE67AC0ED077A08B0BDEC108B70471C
:105EE0002DED108B88B0D1ED015A91ED046AD1ED02
:105EF000053A91ED064AD1ED077AD1ED084AD1ED88
:105F0000092A90ED002A90ED119A32EE490A90ED9F
:105F1000013AD0ED108A33EE285A90ED087A90EDD0
:105F2000198A77EE486AD0ED091AD0ED180A71EE99
:105F3000A09A36EEE91A21EE251A76EEA96A66EEE7
:105F4000A56A30EE01DA75EE26CA30EE410A35EE6A
:105F5000665A32EE092A73EE686A37EE087A31EE35
:105F6000E03A77EE431A61EEA51A37EE037A27EE90
:105F7000257A32EE473A8DED013A36EEA11A8DEDD3
:105F8000021A32EE077A8DED037A36EEE1FA90EDE1
:105F9000022A90ED13AA32EE4A7AD0ED036AD0EDD0
:105FA000129A36EEA98A66EE07AA23EE883A7AEEAE
:105FB000C3AA26EE088A23EE877A38EE078A90ED88
:105FC0000A3AD0ED1B0A73EE608A90ED0B7A90EDE1
:105FD0001A1A77EE011A27EEE89A24EE21BA39EE62
:105FE0004B9A67EEE11A64EE288A71EEA81A3AEE2F
:105FF00089CA78EE218A3AEEC99A8DED049A78EE34
:10600000611ACDED051A32EE0A2A76EEE96A64EEDF
:10601000021A27EEE68A71EEC81A64EE266A27EEA7
:10602000C22A76EE826A33EE203A37EE417A26EEC5
:10603000032A23EE871A32EE012A26EE077A23EE90
:10604000833A37EE437A71EEC20ACDED060A36EE98
:10605000C78A8DED078A31EE82EA76EE87DA90ED17
:1060600004BA90ED153A7BEE431AD0ED05AAD0EDB7
:10607000146A3AEEA67A24EEA12A22EE871A32EEAC
:10608000412A24EE877A62EEA11A37EE217A90ED4A
:106090000CAA90ED1D8A7AEE481AD0ED0D9A90ED7B
:1060A0001C9A79EE890A62EEA1BA24EEA01A7BEE60
:1060B000C1BA62EEA00A64EEA11A70EEA10A32EE35
:1060C0002B1A77EE201A32EE6B2A37EE607A3BEE0F
:1060D00003BA7AEEE66A22EE8B3A64EEA6AA73EE73
:1060E0006A0A62EEA66A24EE8B3A76EE836A3AEE8C
:1060F000088A39EEC99A24EE883A62EE899A33EE1C
:10610000693A64EE894A62EE882A74EEA24A70EE19
:10611000C3BA36EEE4BA30EE833A76EEA46A90ED76
:1061200017AAD0ED064A74EECA4AD0ED16EAD0EDB1
:1061300007AA7AEEAE0A64EE24AA67EEE02A7AEEA7
:10614000E2AA64EE200A67EEE44A70EEA40A90ED3B
:106150001F9AD0ED0E4A34EEC98AD0ED1E9AD0EDCA
:106160000F4A74EEA94A63EE882A66EE24FA72EEAC
:10617000EF2A63EEA44A26EE088A74EE884A3AEEC5
:10618000A28A70EEA4FA7AEEE22A70EEE44AD0ED2A
:1061900006AA3AEE8AAAD0ED07AA7AEEEE0A63EED4
:1061A0008AAA66EE20EA7AEEAEAA63EEA03A26EE5E
:1061B0000A6A33EEC66AD0ED0E3A33EE899AD0ED14
:1061C0000F3A73EEE99A67EEC93A64EE290A73EE64
:1061D000E03A67EEE97A24EE094A77EE847A3AEEFD
:1061E000A39A76EE270A7AEEE33A76EE677A3DEEE8
:1061F000014A3CEEA16A3CEE08AA78EEAF9A74EE32
:106200000AAAC0ED00AA76EE29AAC0ED01AA34EED2
:106210004A4A80ED024A36EE696A80ED036A3DEE35
:10622000411A7CEEE11A3CEE488A78EEEF8A31EEB4
:10623000686A80ED046A31EE886A80ED056A31EEA5
:10624000281A80ED061A71EEC81AC0ED071A70EE12
:10625000471A35EE024ADDED048A38EEE46ADDEDD8
